{
  "contractName": "DiplomeRegistry",
  "abi": [
    {
      "inputs": [],
      "stateMutability": "nonpayable",
      "type": "constructor"
    },
    {
      "inputs": [],
      "name": "admin",
      "outputs": [
        {
          "internalType": "address",
          "name": "",
          "type": "address"
        }
      ],
      "stateMutability": "view",
      "type": "function"
    },
    {
      "inputs": [
        {
          "internalType": "address",
          "name": "",
          "type": "address"
        }
      ],
      "name": "diplomes",
      "outputs": [
        {
          "internalType": "string",
          "name": "nom",
          "type": "string"
        },
        {
          "internalType": "string",
          "name": "diplome",
          "type": "string"
        },
        {
          "internalType": "uint256",
          "name": "annee",
          "type": "uint256"
        }
      ],
      "stateMutability": "view",
      "type": "function"
    },
    {
      "inputs": [
        {
          "internalType": "address",
          "name": "_etudiant",
          "type": "address"
        },
        {
          "internalType": "string",
          "name": "_nom",
          "type": "string"
        },
        {
          "internalType": "string",
          "name": "_diplome",
          "type": "string"
        },
        {
          "internalType": "uint256",
          "name": "_annee",
          "type": "uint256"
        }
      ],
      "name": "ajouterDiplome",
      "outputs": [],
      "stateMutability": "nonpayable",
      "type": "function"
    },
    {
      "inputs": [
        {
          "internalType": "address",
          "name": "_etudiant",
          "type": "address"
        }
      ],
      "name": "consulterDiplome",
      "outputs": [
        {
          "internalType": "string",
          "name": "",
          "type": "string"
        },
        {
          "internalType": "string",
          "name": "",
          "type": "string"
        },
        {
          "internalType": "uint256",
          "name": "",
          "type": "uint256"
        }
      ],
      "stateMutability": "view",
      "type": "function"
    }
  ],
  "bytecode": "0x608060405234801561001057600080fd5b50600080546001600160a01b031916331790556106d9806100326000396000f3fe608060405234801561001057600080fd5b506004361061004c5760003560e01c80632228e6f9146100515780634d81900714610066578063ad3062e414610091578063f851a440146100a4575b600080fd5b61006461005f366004610544565b6100b9565b005b610079610074366004610523565b61012d565b6040516100889392919061061c565b60405180910390f35b61007961009f366004610523565b6102ac565b6100ac6103de565b6040516100889190610608565b6040805160608101825284815260208082018590528183018490526001600160a01b03871660009081526001825292909220815180519293919261010092849201906103ed565b50602082810151805161011992600185019201906103ed565b506040820151816002015590505050505050565b60608060008060016000866001600160a01b03166001600160a01b0316815260200190815260200160002060405180606001604052908160008201805461017390610652565b80601f016020809104026020016040519081016040528092919081815260200182805461019f90610652565b80156101ec5780601f106101c1576101008083540402835291602001916101ec565b820191906000526020600020905b8154815290600101906020018083116101cf57829003601f168201915b5050505050815260200160018201805461020590610652565b80601f016020809104026020016040519081016040528092919081815260200182805461023190610652565b801561027e5780601f106102535761010080835404028352916020019161027e565b820191906000526020600020905b81548152906001019060200180831161026157829003601f168201915b5050509183525050600291909101546020918201528151908201516040909201519097919650945092505050565b6001602052600090815260409020805481906102c790610652565b80601f01602080910402602001604051908101604052809291908181526020018280546102f390610652565b80156103405780601f1061031557610100808354040283529160200191610340565b820191906000526020600020905b81548152906001019060200180831161032357829003601f168201915b50505050509080600101805461035590610652565b80601f016020809104026020016040519081016040528092919081815260200182805461038190610652565b80156103ce5780601f106103a3576101008083540402835291602001916103ce565b820191906000526020600020905b8154815290600101906020018083116103b157829003601f168201915b5050505050908060020154905083565b6000546001600160a01b031681565b8280546103f990610652565b90600052602060002090601f01602090048101928261041b5760008555610461565b82601f1061043457805160ff1916838001178555610461565b82800160010185558215610461579182015b82811115610461578251825591602001919060010190610446565b5061046d929150610471565b5090565b5b8082111561046d5760008155600101610472565b80356001600160a01b038116811461049d57600080fd5b919050565b600082601f8301126104b2578081fd5b813567ffffffffffffffff808211156104cd576104cd61068d565b604051601f8301601f1916810160200182811182821017156104f1576104f161068d565b604052828152848301602001861015610508578384fd5b82602086016020830137918201602001929092529392505050565b600060208284031215610534578081fd5b61053d82610486565b9392505050565b60008060008060808587031215610559578283fd5b61056285610486565b9350602085013567ffffffffffffffff8082111561057e578485fd5b61058a888389016104a2565b9450604087013591508082111561059f578384fd5b506105ac878288016104a2565b949793965093946060013593505050565b60008151808452815b818110156105e2576020818501810151868301820152016105c6565b818111156105f35782602083870101525b50601f01601f19169290920160200192915050565b6001600160a01b0391909116815260200190565b60006060825261062f60608301866105bd565b828103602084015261064181866105bd565b915050826040830152949350505050565b60028104600182168061066657607f821691505b6020821081141561068757634e487b7160e01b600052602260045260246000fd5b50919050565b634e487b7160e01b600052604160045260246000fdfea2646970667358221220c9b2f6119d5262ca2db5f6be81d6fb4abcfb22166e85c7351a2b1d7713df214964736f6c63430008000033",
  "immutableReferences": {},
  "source": "// SPDX-License-Identifier: MIT\r\npragma solidity ^0.8.0;\r\n\r\ncontract DiplomeRegistry {\r\n    address public admin;\r\n\r\n    constructor() {\r\n        admin = msg.sender;\r\n    }\r\n\r\n    struct Diplome {\r\n        string nom;\r\n        string diplome;\r\n        uint annee;\r\n    }\r\n\r\n    mapping(address => Diplome) public diplomes;\r\n\r\n    function ajouterDiplome(\r\n        address _etudiant,\r\n        string memory _nom,\r\n        string memory _diplome,\r\n        uint _annee\r\n    ) public {\r\n        // require(msg.sender == admin, \"only admin can add a diploma\");\r\n        diplomes[_etudiant] = Diplome(_nom, _diplome, _annee);\r\n    }\r\n\r\n\r\n    function consulterDiplome(address _etudiant) public view returns (string memory, string memory, uint) {\r\n        Diplome memory d = diplomes[_etudiant];\r\n        return (d.nom, d.diplome, d.annee);\r\n    }\r\n}",
  "sourcePath": "C:\\Users\\hp\\eth-app\\contracts\\DiplomaRegistry.sol",
  "compiler": {
    "name": "solc",
    "version": "0.8.0+commit.c7dfd78e.Emscripten.clang"
  },
  "schemaVersion": "3.4.16",
  "updatedAt": "2025-06-20T10:12:08.436Z",
  "devdoc": {
    "kind": "dev",
    "methods": {},
    "version": 1
  },
  "userdoc": {
    "kind": "user",
    "methods": {},
    "version": 1
  }
}