{
  "contractName": "DiplomaRegistry",
  "abi": [
    {
      "inputs": [],
      "stateMutability": "nonpayable",
      "type": "constructor"
    },
    {
      "inputs": [],
      "name": "admin",
      "outputs": [
        {
          "internalType": "address",
          "name": "",
          "type": "address"
        }
      ],
      "stateMutability": "view",
      "type": "function",
      "constant": true
    },
    {
      "inputs": [
        {
          "internalType": "address",
          "name": "",
          "type": "address"
        },
        {
          "internalType": "uint256",
          "name": "",
          "type": "uint256"
        }
      ],
      "name": "diplomas",
      "outputs": [
        {
          "internalType": "string",
          "name": "studentName",
          "type": "string"
        },
        {
          "internalType": "string",
          "name": "degree",
          "type": "string"
        },
        {
          "internalType": "string",
          "name": "university",
          "type": "string"
        },
        {
          "internalType": "uint256",
          "name": "date",
          "type": "uint256"
        }
      ],
      "stateMutability": "view",
      "type": "function",
      "constant": true
    },
    {
      "inputs": [
        {
          "internalType": "address",
          "name": "student",
          "type": "address"
        },
        {
          "internalType": "string",
          "name": "studentName",
          "type": "string"
        },
        {
          "internalType": "string",
          "name": "degree",
          "type": "string"
        },
        {
          "internalType": "string",
          "name": "university",
          "type": "string"
        },
        {
          "internalType": "uint256",
          "name": "date",
          "type": "uint256"
        }
      ],
      "name": "addDiploma",
      "outputs": [],
      "stateMutability": "nonpayable",
      "type": "function"
    },
    {
      "inputs": [
        {
          "internalType": "address",
          "name": "student",
          "type": "address"
        }
      ],
      "name": "getDiplomas",
      "outputs": [
        {
          "internalType": "string[]",
          "name": "names",
          "type": "string[]"
        },
        {
          "internalType": "string[]",
          "name": "degrees",
          "type": "string[]"
        },
        {
          "internalType": "string[]",
          "name": "universities",
          "type": "string[]"
        },
        {
          "internalType": "uint256[]",
          "name": "dates",
          "type": "uint256[]"
        }
      ],
      "stateMutability": "view",
      "type": "function",
      "constant": true
    }
  ],
  "bytecode": "0x608060405234801561001057600080fd5b50600080546001600160a01b03191633179055610d39806100326000396000f3fe608060405234801561001057600080fd5b506004361061004c5760003560e01c8063243d1ec814610051578063313ec2521461007d578063f1a9e1f214610092578063f851a440146100b5575b600080fd5b61006461005f366004610a06565b6100ca565b6040516100749493929190610b9f565b60405180910390f35b61009061008b366004610a27565b610600565b005b6100a56100a0366004610ac4565b6106dc565b6040516100749493929190610c1c565b6100bd6108c1565b6040516100749190610b8b565b606080606080600060016000876001600160a01b03166001600160a01b03168152602001908152602001600020805480602002602001604051908101604052809291908181526020016000905b82821015610309578382906000526020600020906004020160405180608001604052908160008201805461014a90610c8b565b80601f016020809104026020016040519081016040528092919081815260200182805461017690610c8b565b80156101c35780601f10610198576101008083540402835291602001916101c3565b820191906000526020600020905b8154815290600101906020018083116101a657829003601f168201915b505050505081526020016001820180546101dc90610c8b565b80601f016020809104026020016040519081016040528092919081815260200182805461020890610c8b565b80156102555780601f1061022a57610100808354040283529160200191610255565b820191906000526020600020905b81548152906001019060200180831161023857829003601f168201915b5050505050815260200160028201805461026e90610c8b565b80601f016020809104026020016040519081016040528092919081815260200182805461029a90610c8b565b80156102e75780601f106102bc576101008083540402835291602001916102e7565b820191906000526020600020905b8154815290600101906020018083116102ca57829003601f168201915b5050505050815260200160038201548152505081526020019060010190610117565b505050509050805167ffffffffffffffff81111561033757634e487b7160e01b600052604160045260246000fd5b60405190808252806020026020018201604052801561036a57816020015b60608152602001906001900390816103555790505b509450805167ffffffffffffffff81111561039557634e487b7160e01b600052604160045260246000fd5b6040519080825280602002602001820160405280156103c857816020015b60608152602001906001900390816103b35790505b509350805167ffffffffffffffff8111156103f357634e487b7160e01b600052604160045260246000fd5b60405190808252806020026020018201604052801561042657816020015b60608152602001906001900390816104115790505b509250805167ffffffffffffffff81111561045157634e487b7160e01b600052604160045260246000fd5b60405190808252806020026020018201604052801561047a578160200160208202803683370190505b50915060005b81518110156105f7578181815181106104a957634e487b7160e01b600052603260045260246000fd5b6020026020010151600001518682815181106104d557634e487b7160e01b600052603260045260246000fd5b602002602001018190525081818151811061050057634e487b7160e01b600052603260045260246000fd5b60200260200101516020015185828151811061052c57634e487b7160e01b600052603260045260246000fd5b602002602001018190525081818151811061055757634e487b7160e01b600052603260045260246000fd5b60200260200101516040015184828151811061058357634e487b7160e01b600052603260045260246000fd5b60200260200101819052508181815181106105ae57634e487b7160e01b600052603260045260246000fd5b6020026020010151606001518382815181106105da57634e487b7160e01b600052603260045260246000fd5b6020908102919091010152806105ef81610cc6565b915050610480565b50509193509193565b6000546001600160a01b031633146106335760405162461bcd60e51b815260040161062a90610c67565b60405180910390fd5b6001600160a01b0385166000908152600160208181526040808420815160808101835289815280840189905291820187905260608201869052805493840181558452928190208351805160049094029091019261069392849201906108d0565b5060208281015180516106ac92600185019201906108d0565b50604082015180516106c89160028401916020909101906108d0565b506060820151816003015550505050505050565b600160205281600052604060002081815481106106f857600080fd5b90600052602060002090600402016000915091505080600001805461071c90610c8b565b80601f016020809104026020016040519081016040528092919081815260200182805461074890610c8b565b80156107955780601f1061076a57610100808354040283529160200191610795565b820191906000526020600020905b81548152906001019060200180831161077857829003601f168201915b5050505050908060010180546107aa90610c8b565b80601f01602080910402602001604051908101604052809291908181526020018280546107d690610c8b565b80156108235780601f106107f857610100808354040283529160200191610823565b820191906000526020600020905b81548152906001019060200180831161080657829003601f168201915b50505050509080600201805461083890610c8b565b80601f016020809104026020016040519081016040528092919081815260200182805461086490610c8b565b80156108b15780601f10610886576101008083540402835291602001916108b1565b820191906000526020600020905b81548152906001019060200180831161089457829003601f168201915b5050505050908060030154905084565b6000546001600160a01b031681565b8280546108dc90610c8b565b90600052602060002090601f0160209004810192826108fe5760008555610944565b82601f1061091757805160ff1916838001178555610944565b82800160010185558215610944579182015b82811115610944578251825591602001919060010190610929565b50610950929150610954565b5090565b5b808211156109505760008155600101610955565b80356001600160a01b038116811461098057600080fd5b919050565b600082601f830112610995578081fd5b813567ffffffffffffffff808211156109b0576109b0610ced565b604051601f8301601f1916810160200182811182821017156109d4576109d4610ced565b6040528281528483016020018610156109eb578384fd5b82602086016020830137918201602001929092529392505050565b600060208284031215610a17578081fd5b610a2082610969565b9392505050565b600080600080600060a08688031215610a3e578081fd5b610a4786610969565b9450602086013567ffffffffffffffff80821115610a63578283fd5b610a6f89838a01610985565b95506040880135915080821115610a84578283fd5b610a9089838a01610985565b94506060880135915080821115610aa5578283fd5b50610ab288828901610985565b95989497509295608001359392505050565b60008060408385031215610ad6578182fd5b610adf83610969565b946020939093013593505050565b6000815180845260208085018081965082840281019150828601855b85811015610b33578284038952610b21848351610b40565b98850198935090840190600101610b09565b5091979650505050505050565b60008151808452815b81811015610b6557602081850181015186830182015201610b49565b81811115610b765782602083870101525b50601f01601f19169290920160200192915050565b6001600160a01b0391909116815260200190565b600060808252610bb26080830187610aed565b602083820381850152610bc58288610aed565b91508382036040850152610bd98287610aed565b84810360608601528551808252828701935090820190845b81811015610c0d57845183529383019391830191600101610bf1565b50909998505050505050505050565b600060808252610c2f6080830187610b40565b8281036020840152610c418187610b40565b90508281036040840152610c558186610b40565b91505082606083015295945050505050565b6020808252600a908201526927b7363c9030b236b4b760b11b604082015260600190565b600281046001821680610c9f57607f821691505b60208210811415610cc057634e487b7160e01b600052602260045260246000fd5b50919050565b6000600019821415610ce657634e487b7160e01b81526011600452602481fd5b5060010190565b634e487b7160e01b600052604160045260246000fdfea2646970667358221220ef4ce4ebebb16788792b98eb4db0a530ca308d3cb7e072c90fa35eace6155bc764736f6c63430008000033",
  "immutableReferences": {},
  "source": "// SPDX-License-Identifier: MIT\r\npragma solidity ^0.8.0;\r\n\r\ncontract DiplomaRegistry {\r\n    address public admin;\r\n    \r\n    struct Diploma {\r\n        string studentName;\r\n        string degree;\r\n        string university;\r\n        uint256 date;\r\n    }\r\n    \r\n    mapping(address => Diploma[]) public diplomas;\r\n\r\n    constructor() {\r\n        admin = msg.sender;\r\n    }\r\n\r\n    modifier onlyAdmin() {\r\n        require(msg.sender == admin, \"Only admin\");\r\n        _;\r\n    }\r\n\r\n    function addDiploma(\r\n        address student,\r\n        string memory studentName,\r\n        string memory degree,\r\n        string memory university,\r\n        uint256 date\r\n    ) public onlyAdmin {\r\n        diplomas[student].push(Diploma(studentName, degree, university, date));\r\n    }\r\n\r\n    function getDiplomas(address student) public view returns (\r\n        string[] memory names,\r\n        string[] memory degrees,\r\n        string[] memory universities,\r\n        uint256[] memory dates\r\n    ) {\r\n        Diploma[] memory studentDiplomas = diplomas[student];\r\n        names = new string[](studentDiplomas.length);\r\n        degrees = new string[](studentDiplomas.length);\r\n        universities = new string[](studentDiplomas.length);\r\n        dates = new uint256[](studentDiplomas.length);\r\n        \r\n        for (uint i = 0; i < studentDiplomas.length; i++) {\r\n            names[i] = studentDiplomas[i].studentName;\r\n            degrees[i] = studentDiplomas[i].degree;\r\n            universities[i] = studentDiplomas[i].university;\r\n            dates[i] = studentDiplomas[i].date;\r\n        }\r\n    }\r\n}",
  "sourcePath": "C:\\Users\\hp\\eth-app\\contracts\\DiplomaRegistry.sol",
  "compiler": {
    "name": "solc",
    "version": "0.8.0+commit.c7dfd78e.Emscripten.clang"
  },
  "schemaVersion": "3.4.16",
  "updatedAt": "2025-06-16T18:29:28.317Z",
  "networkType": "ethereum",
  "devdoc": {
    "kind": "dev",
    "methods": {},
    "version": 1
  },
  "userdoc": {
    "kind": "user",
    "methods": {},
    "version": 1
  }
}