{
  "contractName": "DiplomeRegistry",
  "abi": [
    {
      "inputs": [],
      "stateMutability": "nonpayable",
      "type": "constructor"
    },
    {
      "inputs": [],
      "name": "admin",
      "outputs": [
        {
          "internalType": "address",
          "name": "",
          "type": "address"
        }
      ],
      "stateMutability": "view",
      "type": "function"
    },
    {
      "inputs": [
        {
          "internalType": "address",
          "name": "",
          "type": "address"
        }
      ],
      "name": "diplomes",
      "outputs": [
        {
          "internalType": "string",
          "name": "nom",
          "type": "string"
        },
        {
          "internalType": "string",
          "name": "diplome",
          "type": "string"
        },
        {
          "internalType": "uint256",
          "name": "annee",
          "type": "uint256"
        }
      ],
      "stateMutability": "view",
      "type": "function"
    },
    {
      "inputs": [
        {
          "internalType": "address",
          "name": "_etudiant",
          "type": "address"
        },
        {
          "internalType": "string",
          "name": "_nom",
          "type": "string"
        },
        {
          "internalType": "string",
          "name": "_diplome",
          "type": "string"
        },
        {
          "internalType": "uint256",
          "name": "_annee",
          "type": "uint256"
        }
      ],
      "name": "ajouterDiplome",
      "outputs": [],
      "stateMutability": "nonpayable",
      "type": "function"
    },
    {
      "inputs": [
        {
          "internalType": "address",
          "name": "_etudiant",
          "type": "address"
        }
      ],
      "name": "consulterDiplome",
      "outputs": [
        {
          "internalType": "string",
          "name": "",
          "type": "string"
        },
        {
          "internalType": "string",
          "name": "",
          "type": "string"
        },
        {
          "internalType": "uint256",
          "name": "",
          "type": "uint256"
        }
      ],
      "stateMutability": "view",
      "type": "function"
    }
  ],
  "bytecode": "0x608060405234801561001057600080fd5b50600080546001600160a01b03191633179055610743806100326000396000f3fe608060405234801561001057600080fd5b506004361061004c5760003560e01c80632228e6f9146100515780634d81900714610066578063ad3062e414610091578063f851a440146100a4575b600080fd5b61006461005f366004610577565b6100b9565b005b610079610074366004610556565b610160565b6040516100889392919061064f565b60405180910390f35b61007961009f366004610556565b6102df565b6100ac610411565b604051610088919061063b565b6000546001600160a01b031633146100ec5760405162461bcd60e51b81526004016100e390610685565b60405180910390fd5b6040805160608101825284815260208082018590528183018490526001600160a01b0387166000908152600182529290922081518051929391926101339284920190610420565b50602082810151805161014c9260018501920190610420565b506040820151816002015590505050505050565b60608060008060016000866001600160a01b03166001600160a01b031681526020019081526020016000206040518060600160405290816000820180546101a6906106bc565b80601f01602080910402602001604051908101604052809291908181526020018280546101d2906106bc565b801561021f5780601f106101f45761010080835404028352916020019161021f565b820191906000526020600020905b81548152906001019060200180831161020257829003601f168201915b50505050508152602001600182018054610238906106bc565b80601f0160208091040260200160405190810160405280929190818152602001828054610264906106bc565b80156102b15780601f10610286576101008083540402835291602001916102b1565b820191906000526020600020905b81548152906001019060200180831161029457829003601f168201915b5050509183525050600291909101546020918201528151908201516040909201519097919650945092505050565b6001602052600090815260409020805481906102fa906106bc565b80601f0160208091040260200160405190810160405280929190818152602001828054610326906106bc565b80156103735780601f1061034857610100808354040283529160200191610373565b820191906000526020600020905b81548152906001019060200180831161035657829003601f168201915b505050505090806001018054610388906106bc565b80601f01602080910402602001604051908101604052809291908181526020018280546103b4906106bc565b80156104015780601f106103d657610100808354040283529160200191610401565b820191906000526020600020905b8154815290600101906020018083116103e457829003601f168201915b5050505050908060020154905083565b6000546001600160a01b031681565b82805461042c906106bc565b90600052602060002090601f01602090048101928261044e5760008555610494565b82601f1061046757805160ff1916838001178555610494565b82800160010185558215610494579182015b82811115610494578251825591602001919060010190610479565b506104a09291506104a4565b5090565b5b808211156104a057600081556001016104a5565b80356001600160a01b03811681146104d057600080fd5b919050565b600082601f8301126104e5578081fd5b813567ffffffffffffffff80821115610500576105006106f7565b604051601f8301601f191681016020018281118282101715610524576105246106f7565b60405282815284830160200186101561053b578384fd5b82602086016020830137918201602001929092529392505050565b600060208284031215610567578081fd5b610570826104b9565b9392505050565b6000806000806080858703121561058c578283fd5b610595856104b9565b9350602085013567ffffffffffffffff808211156105b1578485fd5b6105bd888389016104d5565b945060408701359150808211156105d2578384fd5b506105df878288016104d5565b949793965093946060013593505050565b60008151808452815b81811015610615576020818501810151868301820152016105f9565b818111156106265782602083870101525b50601f01601f19169290920160200192915050565b6001600160a01b0391909116815260200190565b60006060825261066260608301866105f0565b828103602084015261067481866105f0565b915050826040830152949350505050565b6020808252601c908201527f6f6e6c792061646d696e2063616e206164642061206469706c6f6d6100000000604082015260600190565b6002810460018216806106d057607f821691505b602082108114156106f157634e487b7160e01b600052602260045260246000fd5b50919050565b634e487b7160e01b600052604160045260246000fdfea264697066735822122031af427c9d40147b88a37eaadcd53b9d9716361e7de87c699ca83f0f360ba94064736f6c63430008000033",
  "immutableReferences": {},
  "source": "// SPDX-License-Identifier: MIT\r\npragma solidity ^0.8.0;\r\n\r\ncontract DiplomeRegistry {\r\n    address public admin;\r\n\r\n    constructor() {\r\n        admin = msg.sender;\r\n    }\r\n\r\n    struct Diplome {\r\n        string nom;\r\n        string diplome;\r\n        uint annee;\r\n    }\r\n\r\n    mapping(address => Diplome) public diplomes;\r\n\r\n    function ajouterDiplome(\r\n        address _etudiant,\r\n        string memory _nom,\r\n        string memory _diplome,\r\n        uint _annee\r\n    ) public {\r\n        require(msg.sender == admin, \"only admin can add a diploma\");\r\n        diplomes[_etudiant] = Diplome(_nom, _diplome, _annee);\r\n    }\r\n\r\n    function consulterDiplome(address _etudiant) public view returns (string memory, string memory, uint) {\r\n        Diplome memory d = diplomes[_etudiant];\r\n        return (d.nom, d.diplome, d.annee);\r\n    }\r\n}",
  "sourcePath": "C:\\Users\\hp\\eth-app\\contracts\\DiplomaRegistry.sol",
  "compiler": {
    "name": "solc",
    "version": "0.8.0+commit.c7dfd78e.Emscripten.clang"
  },
  "schemaVersion": "3.4.16",
  "updatedAt": "2025-06-17T13:52:44.447Z",
  "devdoc": {
    "kind": "dev",
    "methods": {},
    "version": 1
  },
  "userdoc": {
    "kind": "user",
    "methods": {},
    "version": 1
  }
}