{
  "contractName": "DiplomaRegistry",
  "abi": [
    {
      "inputs": [],
      "stateMutability": "nonpayable",
      "type": "constructor"
    },
    {
      "inputs": [],
      "name": "admin",
      "outputs": [
        {
          "internalType": "address",
          "name": "",
          "type": "address"
        }
      ],
      "stateMutability": "view",
      "type": "function",
      "constant": true
    },
    {
      "inputs": [
        {
          "internalType": "address",
          "name": "student",
          "type": "address"
        },
        {
          "internalType": "string",
          "name": "studentName",
          "type": "string"
        },
        {
          "internalType": "string",
          "name": "degree",
          "type": "string"
        },
        {
          "internalType": "string",
          "name": "university",
          "type": "string"
        },
        {
          "internalType": "uint256",
          "name": "date",
          "type": "uint256"
        }
      ],
      "name": "addDiploma",
      "outputs": [],
      "stateMutability": "nonpayable",
      "type": "function"
    },
    {
      "inputs": [
        {
          "internalType": "address",
          "name": "student",
          "type": "address"
        }
      ],
      "name": "getDiplomas",
      "outputs": [
        {
          "internalType": "string[]",
          "name": "names",
          "type": "string[]"
        },
        {
          "internalType": "string[]",
          "name": "degrees",
          "type": "string[]"
        },
        {
          "internalType": "string[]",
          "name": "universities",
          "type": "string[]"
        },
        {
          "internalType": "uint256[]",
          "name": "dates",
          "type": "uint256[]"
        }
      ],
      "stateMutability": "view",
      "type": "function",
      "constant": true
    }
  ],
  "bytecode": "0x608060405234801561001057600080fd5b50600080546001600160a01b03191633179055610ab9806100326000396000f3fe608060405234801561001057600080fd5b50600436106100415760003560e01c8063243d1ec814610046578063313ec25214610072578063f851a44014610087575b600080fd5b6100596100543660046107ff565b61009c565b604051610069949392919061095e565b60405180910390f35b610085610080366004610820565b6105de565b005b61008f6106ba565b604051610069919061094a565b6001600160a01b0381166000908152600160205260409020546060908190819081908067ffffffffffffffff8111156100e557634e487b7160e01b600052604160045260246000fd5b60405190808252806020026020018201604052801561011857816020015b60608152602001906001900390816101035790505b5094508067ffffffffffffffff81111561014257634e487b7160e01b600052604160045260246000fd5b60405190808252806020026020018201604052801561017557816020015b60608152602001906001900390816101605790505b5093508067ffffffffffffffff81111561019f57634e487b7160e01b600052604160045260246000fd5b6040519080825280602002602001820160405280156101d257816020015b60608152602001906001900390816101bd5790505b5092508067ffffffffffffffff8111156101fc57634e487b7160e01b600052604160045260246000fd5b604051908082528060200260200182016040528015610225578160200160208202803683370190505b50915060005b818110156105d5576001600160a01b038716600090815260016020526040902080548290811061026b57634e487b7160e01b600052603260045260246000fd5b9060005260206000209060040201600001805461028790610a0b565b80601f01602080910402602001604051908101604052809291908181526020018280546102b390610a0b565b80156103005780601f106102d557610100808354040283529160200191610300565b820191906000526020600020905b8154815290600101906020018083116102e357829003601f168201915b505050505086828151811061032557634e487b7160e01b600052603260045260246000fd5b602002602001018190525060016000886001600160a01b03166001600160a01b03168152602001908152602001600020818154811061037457634e487b7160e01b600052603260045260246000fd5b9060005260206000209060040201600101805461039090610a0b565b80601f01602080910402602001604051908101604052809291908181526020018280546103bc90610a0b565b80156104095780601f106103de57610100808354040283529160200191610409565b820191906000526020600020905b8154815290600101906020018083116103ec57829003601f168201915b505050505085828151811061042e57634e487b7160e01b600052603260045260246000fd5b602002602001018190525060016000886001600160a01b03166001600160a01b03168152602001908152602001600020818154811061047d57634e487b7160e01b600052603260045260246000fd5b9060005260206000209060040201600201805461049990610a0b565b80601f01602080910402602001604051908101604052809291908181526020018280546104c590610a0b565b80156105125780601f106104e757610100808354040283529160200191610512565b820191906000526020600020905b8154815290600101906020018083116104f557829003601f168201915b505050505084828151811061053757634e487b7160e01b600052603260045260246000fd5b602002602001018190525060016000886001600160a01b03166001600160a01b03168152602001908152602001600020818154811061058657634e487b7160e01b600052603260045260246000fd5b9060005260206000209060040201600301548382815181106105b857634e487b7160e01b600052603260045260246000fd5b6020908102919091010152806105cd81610a46565b91505061022b565b50509193509193565b6000546001600160a01b031633146106115760405162461bcd60e51b8152600401610608906109db565b60405180910390fd5b6001600160a01b0385166000908152600160208181526040808420815160808101835289815280840189905291820187905260608201869052805493840181558452928190208351805160049094029091019261067192849201906106c9565b50602082810151805161068a92600185019201906106c9565b50604082015180516106a69160028401916020909101906106c9565b506060820151816003015550505050505050565b6000546001600160a01b031681565b8280546106d590610a0b565b90600052602060002090601f0160209004810192826106f7576000855561073d565b82601f1061071057805160ff191683800117855561073d565b8280016001018555821561073d579182015b8281111561073d578251825591602001919060010190610722565b5061074992915061074d565b5090565b5b80821115610749576000815560010161074e565b80356001600160a01b038116811461077957600080fd5b919050565b600082601f83011261078e578081fd5b813567ffffffffffffffff808211156107a9576107a9610a6d565b604051601f8301601f1916810160200182811182821017156107cd576107cd610a6d565b6040528281528483016020018610156107e4578384fd5b82602086016020830137918201602001929092529392505050565b600060208284031215610810578081fd5b61081982610762565b9392505050565b600080600080600060a08688031215610837578081fd5b61084086610762565b9450602086013567ffffffffffffffff8082111561085c578283fd5b61086889838a0161077e565b9550604088013591508082111561087d578283fd5b61088989838a0161077e565b9450606088013591508082111561089e578283fd5b506108ab8882890161077e565b95989497509295608001359392505050565b60008282518085526020808601955080818302840101818601855b8481101561093d57601f1980878503018a5282518051808652895b8181101561090e5782810188015187820189015287016108f3565b8181111561091e578a8883890101525b509a86019a601f019091169390930184019250908301906001016108d8565b5090979650505050505050565b6001600160a01b0391909116815260200190565b60006080825261097160808301876108bd565b60208382038185015261098482886108bd565b9150838203604085015261099882876108bd565b84810360608601528551808252828701935090820190845b818110156109cc578451835293830193918301916001016109b0565b50909998505050505050505050565b6020808252601690820152754f6e6c792061646d696e2063616e20646f207468697360501b604082015260600190565b600281046001821680610a1f57607f821691505b60208210811415610a4057634e487b7160e01b600052602260045260246000fd5b50919050565b6000600019821415610a6657634e487b7160e01b81526011600452602481fd5b5060010190565b634e487b7160e01b600052604160045260246000fdfea2646970667358221220146f4385954db0e27617ac6bf6b4482f55f5ae4bb1f794da0d5b539c58755c4664736f6c63430008000033",
  "immutableReferences": {},
  "source": "// SPDX-License-Identifier: MIT\r\npragma solidity ^0.8.0;\r\n\r\ncontract DiplomaRegistry {\r\n    address public admin;\r\n\r\n    struct Diploma {\r\n        string studentName;\r\n        string degree;\r\n        string university;\r\n        uint256 date;\r\n    }\r\n\r\n    mapping(address => Diploma[]) private diplomas;\r\n\r\n    modifier onlyAdmin() {\r\n        require(msg.sender == admin, \"Only admin can do this\");\r\n        _;\r\n    }\r\n\r\n    constructor() {\r\n        admin = msg.sender;\r\n    }\r\n\r\n    function addDiploma(\r\n        address student,\r\n        string memory studentName,\r\n        string memory degree,\r\n        string memory university,\r\n        uint256 date\r\n    ) public onlyAdmin {\r\n        diplomas[student].push(Diploma(studentName, degree, university, date));\r\n    }\r\n\r\n    function getDiplomas(address student) public view returns (\r\n        string[] memory names,\r\n        string[] memory degrees,\r\n        string[] memory universities,\r\n        uint256[] memory dates\r\n    ) {\r\n        uint length = diplomas[student].length;\r\n        names = new string[](length);\r\n        degrees = new string[](length);\r\n        universities = new string[](length);\r\n        dates = new uint256[](length);\r\n        \r\n        for(uint i = 0; i < length; i++) {\r\n            names[i] = diplomas[student][i].studentName;\r\n            degrees[i] = diplomas[student][i].degree;\r\n            universities[i] = diplomas[student][i].university;\r\n            dates[i] = diplomas[student][i].date;\r\n        }\r\n    }\r\n}",
  "sourcePath": "C:\\Users\\hp\\eth-app\\contracts\\DiplomaRegistry.sol",
  "compiler": {
    "name": "solc",
    "version": "0.8.0+commit.c7dfd78e.Emscripten.clang"
  },
  "schemaVersion": "3.4.16",
  "updatedAt": "2025-06-13T12:19:13.734Z",
  "networkType": "ethereum",
  "devdoc": {
    "kind": "dev",
    "methods": {},
    "version": 1
  },
  "userdoc": {
    "kind": "user",
    "methods": {},
    "version": 1
  }
}